:020000040800F2
:100000001007002099020008451F00081B1D00086A
:10001000411F0008C51800088128000800000000E2
:10002000000000000000000000000000C5220008E1
:100030001B1B000800000000B91F0008E525000890
:10004000B3020008B3020008B3020008B3020008BC
:10005000B3020008B3020008B3020008B3020008AC
:10006000B3020008B3020008B3020008B30200089C
:10007000B3020008B3020008B3020008B30200088C
:10008000C9180008E9180008B3020008B302000804
:10009000B3020008B3020008B3020008B30200086C
:1000A000B3020008B3020008B3020008B30200085C
:1000B000B302000855260008B3020008B302000886
:1000C000B3020008B3020008B3020008B30200083C
:1000D000B3020008B302000899260008B302000822
:1000E000B3020008B3020008B302000800000000D9
:1000F0000000000000000000000000000000000000
:100100000000000000000000B3020008B302000875
:10011000B3020008B3020008B3020008B3020008EB
:10012000B3020008B3020008B3020008B3020008DB
:10013000B3020008B3020008B3020008B3020008CB
:10014000B3020008B3020008B3020008B3020008BB
:1001500000F002F800F090F80AA090E8000C824449
:100160008344AAF10107DA4501D100F085F8AFF226
:10017000090EBAE80F0013F0010F18BFFB1A43F085
:1001800001031847202B0000402B0000103A24BF29
:1001900078C878C1FAD8520724BF30C830C144BFEC
:1001A00004680C607047000000230024002500262E
:1001B000103A28BF78C1FBD8520728BF30C148BFCA
:1001C0000B6070476E2900F06181702900F0AB82EE
:1001D000662902F0F184652902F0EE84672902F0B5
:1001E000EB846129AFF3008003681B0A28BF41F04C
:1001F0008001692900F00E81642900F00B817529C6
:1002000000F008816F2900F03982782900F07782A8
:10021000E92900F0D381E42900F0D081F52900F02C
:10022000CD81EF2900F03682F82900F0768203684C
:10023000DB0928BF41F08001632900F0F8857329AC
:1002400000F0FD85E32900F00886F32900F00D8613
:10025000002070471FB500F059FE04000020002167
:1002600002F094FC401C60600020002102F078FC49
:10027000E0601FBD10B510BD00F01BFE1146FFF77A
:10028000E9FF02F029FC00F0F3FE03B4FFF7F2FFF0
:1002900003BC00F037FF00000948804709480047C9
:1002A000FEE7FEE7FEE7FEE7FEE7FEE7FEE7FEE726
:1002B000FEE7FEE704480549054A064B7047000083
:1002C000E925000851010008100100201007002056
:1002D00010030020100300207CB51D4616460C00BC
:1002E000009001D02044401E074B7B442A466946BB
:1002F0000190304600F0E3F805461CB10020694645
:1003000000F0F0F828467CBD0102000010B5431C47
:1003100002E010F8011B71B18107FAD14FF00132F0
:1003200002C88C1A8C4314EAC211F9D0C01A0A060A
:1003300003D0C01E10BDC01A10BD0A0401D0801E1B
:1003400010BD0902FCD0401E10BD704770477047B9
:1003500070B5044685690068C10601D5302600E005
:100360002026C00707D070BDD4E901213046904750
:10037000206A401C20626D1EF6D570BD70B5044623
:1003800085690078C00707D170BDD4E9012120201C
:100390009047206A401C20626D1EF6D570BD09682A
:1003A0004A0501D540B27047C905FCD500B2704777
:1003B00009684A0501D5C0B27047C905FCD580B2AD
:1003C000704770B50C460546012A05D0287880068E
:1003D00000D5EA69002302E0012305E05B1C93429B
:1003E00002D2E05C0028F9D1A869E618C01AA86119
:1003F000286A184428622846FFF7AAFF04E0D5E9D6
:10040000012114F8010B9047B442F8D32846FFF7B6
:10041000B5FF70BD2DE9F04106460024106875292E
:10042000314616A510D0FFF7BAFF002802DA404285
:1004300013A507E031688A0701D512A502E0490734
:1004400004D511A5012401E0FFF7B2FF00210A2223
:1004500006F1240709E0B0FBF2FCB0FBF2F302FB6B
:100460001C00303078541846491C0028F3D123462C
:100470002A463046BDE8F04100F069BA00000000AD
:100480002D0000002B000000200000001168026811
:10049000006A530501D508700AE0D30501D508802C
:1004A00006E0130603D5C217C1E9000200E00860A8
:1004B0000120704701694A1C02610878704700B545
:1004C0008FB0CDE901310021059105497944CDE98D
:1004D00003101146684600F031F90FB000BD00006E
:1004E000E5FFFFFF0A6802F8010B0A607047D1E9D7
:1004F00000239A4202D2531C0B6010707047000018
:100500002DE9FF5F15468A460446DFF8AC80F844C3
:100510000027D8E900103E46CDE9001010E03AF877
:1005200016106A4602A800F0A4FC411C07D02178EE
:10053000890603D5E269391891420DD80744761C23
:100540002078800602D5E069B84205DDAE42E6DBE0
:100550003AF816000028E2D1A069C01BA06120462D
:10056000FFF7F6FED8E90010CDE90010002017E0F3
:100570003AF818106A4602A800F07BFCB0F1FF3F81
:1005800081460BD000250DF1080B05E0D4E90121CF
:100590001BF8050090476D1C4D45F7D308F101008D
:1005A000B0428046E4DB206A384420622046FFF7F0
:1005B000E5FEBDE8FF9F0000BA2600002DE9F041EE
:1005C0008046D21D22F007020025D2E90002F5295B
:1005D00015A614D0011E72F1000106DA0023D0EB3B
:1005E000030063EB020211A608E0D8F800108B07A5
:1005F00001D50FA602E0490701D50EA60125114637
:10060000002408F1240704E000F05CF930323A5588
:10061000641C50EA0102F7D12B463246214640467F
:10062000BDE8F04100F093B9000000002D0000008B
:100630002B0000002000000030B4002100F1240451
:1006400008E002F00705D208303542EA4372DB08C1
:100650006554491C52EA0305F3D10468002310A233
:10066000250708D504F020040C4304D0C4690123F5
:100670000CA2641EC46130BC00F069B910B5044618
:1006800021461068FFF794FE02462046BDE8104060
:100690000023D1E7D21D22F00701D1E90023CBE7E7
:1006A0000000000030000000F0B40D46018809058C
:1006B00002D5214C7C4402E01F4C7C440E340021C6
:1006C00000F1240608E002F00F071209E75D42EA94
:1006D00003721B097754491C52EA0307F3D10278CD
:1006E0000023120704D5702D06D009B1022311345E
:1006F0002246F0BC00F02BB901231034F8E770B5A6
:1007000004460D4621461068FFF752FE0246294670
:100710002046BDE870400023C6E7D21D22F0070343
:10072000D3E90023C0E70368126843F020030360A5
:100730000823C3610023B7E71C2500002DE9F05F03
:10074000894604464FF0000ADFF874B1FB44C0F854
:1007500020A02046E1688847002874D0252806D0CC
:10076000D4E901219047206A401C2062F1E700266D
:100770005F462046E16888472028054607DB312D83
:1007800005D2781910F8200C08B10643F1E7B0073C
:1007900001D526F00406C4F81CA00027C4F818A050
:1007A0002A2D09D0284602F0E5F838B304EB870873
:1007B000303DC8F8185019E059F8041B204604EBE6
:1007C00087029161E1688847012F054618D1E069E9
:1007D000002820DA26F020061DE0D8F8180000EBEB
:1007E000800005EB40003038C8F818002046E1686A
:1007F0008847054602F0BEF80028EED1012F0AD046
:100800002E2D08D12046E16888477F1C0546022F1F
:1008100046F02006C4DBA069002803DA404246F017
:100820000106A061F00701D026F010066C2D0BD058
:10083000682D09D04C2D39D06A2D35D0742D35D086
:100840007A2D33D016E038E0E1682F4620468847FD
:10085000B842054609D16C2F26D04FF48060E1687C
:10086000064320468847054604E06C2F1AD04FF413
:10087000807006430DB3A5F14100192802D8203538
:1008800046F400664A462946204626604E46FFF753
:1008900099FC80B101280BD0F61D26F0070000F16D
:1008A000080956E74020E4E78020D8E70020D6E793
:1008B00006F104094DE7284652E7206ABDE8F09F9B
:1008C000AC24000030B5B0F10A024FEA900E71F18D
:1008D00000034EEA817EB0EB0E0061EB91014FEA1E
:1008E000101E4EEA017E10EB0E0041EB11114FEA93
:1008F000102E4EEA016E10EB0E0041EB11214FEA73
:10090000104E4EEA014E10EB0E0041EB1141401823
:1009100041F100014FEAD00040EA41704FEAD101B5
:1009200010EB80054FEA810444EA907444EB010423
:100930006D1944EB0404521BA3414FF0000348BF60
:100940000A3200D530BD401C41F1000130BD2DE917
:10095000F0470D4699469246044600F12408016886
:10096000880604D5E06921F01001216000E0012033
:10097000A84201DD471B00E00027A1697A1902EBBC
:100980000900081AA0612078C00602D42046FFF7AB
:10099000DFFC002608E0D4E901211AF806009047A0
:1009A000206A401C761C20624E45F4DB2078C0068D
:1009B0000AD52046FFF7CCFC06E0D4E9012130201F
:1009C0009047206A401C2062381EA7F10107F4DC22
:1009D00007E0D4E9012118F805009047206A401C7F
:1009E0002062281EA5F10105F3DC2046FFF7C6FCB6
:1009F0002078000602D50220BDE8F0870120FBE741
:100A000070472DE9FF4F0C461E464FF0FF378BB065
:100A1000D2E90001DDF860800A908A46C1F30A55E8
:100A200005B93D46002108464FF00000BAF1000F1D
:100A300000F4400005DA00EB80004FF4400101EAC9
:100A400050004FEA9059B9F1010F00DDB9460A98FC
:100A500050EA4A000ED044F61050A5F2FF35454347
:100A60002F14B8F1000F1ED07542291E1EDDC9F1EA
:100A700000021CE0B8F1010F4FF0000001D030215E
:100A800003E0F24305E02154401CB042FBDB30465A
:100A90000022002121540B99C1F80880C1E90020EF
:100AA0000FB0BDE8F08FBD1B6D1CDEE74A4600DAD3
:100AB000694206A800F06EFA06AB93E8070003ABA4
:100AC00083E8070050460A9900F023FB8DE80700F1
:100AD000A0F500501F3800900398002D09DD42F268
:100AE0001F014A46084403A90390684600F082FDAE
:100AF00008E0A0F500504A461F3803A90390684655
:100B000000F08CFD8DE807000004000C03D04FF0CE
:100B1000FF30410800E01046B8F1000F03D000227A
:100B2000009215461EE0751E05D4FFF7CBFE30324D
:100B300062556D1EF9D5B3460122084302D000224A
:100B40007F1C04E02078302801D100227F1E002A7B
:100B5000099786D01DE0112D07DAFFF7B3FE30327A
:100B600062556D1C50EA0102F5D1084302D000988D
:100B7000C8B10EE00021681E05E0235C625C63548E
:100B80002254401E491C8142F7DBAB46A81B401E85
:100B90000990002004F80B000B98099AC0F808800F
:100BA000C0E9002B7CE711264FF0000859E72DE93A
:100BB000F04F88460446D21D22F0070191B0D1E9DA
:100BC0000001CDE90A0101F0C1FE02460B98C00FF9
:100BD00001D02D2007E02068810701D52B2002E0FD
:100BE000202101EAC000032A099001D0072A05DB71
:100BF00003464146204600F08DF90BE1207880063F
:100C000001D5E06900E00620B8F1650F814606D005
:100C1000B8F1660F18D0B8F1670F70D131E000203D
:100C2000B9F1110F009001DB112301E009F101037B
:100C30000AAA01A90CA8FFF7E4FEDDE90C70002662
:100C400009F10105834647E001204B4600904FF033
:100C500000470AAA01A90CA8FFF7D3FEDDE90DB0F1
:100C60000C995D46002610B909F101000D18B9EB89
:100C7000050003D4C0F1FF3609F10105A5EB090019
:100C80002BE0B9F1010F01DA4FF001090020B9F1B1
:100C9000110F0090484601DD112300E003460AAA27
:100CA00001A90CA8FFF7ADFEDDE90C704D4600264A
:100CB0008346207800070AD4AB4500DA5D4601A8D8
:100CC000012D04DD411911F8011C302907D04F45D1
:100CD00002DA17F1040F04DA012082460FE06D1EDC
:100CE000EEE7002F02DCED1B3E4403E0781CA84237
:100CF00000DD7D1CB81B00F1010A4FF00047207891
:100D0000000703D4AA4501DB4FF0FF3A0021B7F1F9
:100D1000004F0DF143088DF8431024D002202B23FF
:100D2000002F01DA7F422D230A21021EA0F10100CB
:100D300000DC5FB197FBF1FC97FBF1F201FB1C7C3F
:100D400017460CF1300C08F801CDEEE7A8F10100D0
:100D500003702188090501D5452100E06521A0F136
:100D6000010800F8011C09980FA9A1EB0807FF1D55
:100D700000B10120411901EBEA70A1693844081A59
:100D8000401EA0612078C00602D42046FFF7E0FA9A
:100D9000099828B1D4E901219047206A401C2062BB
:100DA0002078C00622D52046FFF7D2FA1EE0002E9A
:100DB00004DBB34502DD01A8805D00E03020D4E90A
:100DC00001219047206A401C2062761CAAF1010094
:100DD0005FEA000A0AD100F099F8C0680168405C37
:100DE000D4E901219047206A401C2062281EA5F109
:100DF0000105DCDC07E0D4E9012118F8010B90477C
:100E0000206A401C2062381EA7F10107F3DC20464F
:100E1000FFF7B4FA032011B043E610B5436913B1EC
:100E2000AFF3008001E0FFF7CCFA012010BD12788B
:100E300000F124010A7000224A700122EDE71168D6
:100E40004FF0FF32E9E710B5436913B1AFF300800B
:100E500001E0FFF755FB012010BD128800F12401CD
:100E600082840022C2840122EDE711684FF0FF3234
:100E7000E9E770B516460C46054600F03FF80368F2
:100E800093F80101012806D0FF2C0FD8185D68B136
:100E900001202C7070BDD3F807013246214603F2C1
:100EA000071303442846BDE8704018474FF0FF3051
:100EB00070BD754600F0E2F8AE460500694653463F
:100EC00020F00700854618B020B5FFF7F3F9BDE81C
:100ED00020404FF000064FF000074FF000084FF0A1
:100EE000000B21F00701AC46ACE8C009ACE8C00932
:100EF000ACE8C009ACE8C0098D46704710B500F0F9
:100F000005F8001D10BD00BF851C0000004870479B
:100F1000D00000202DE9F0411F4604460326016859
:100F2000072A01F4006004DB08B116A505E016A548
:100F300003E008B115A500E015A521F01000206020
:100F4000A069C01EA0610FB1401EA0612046FFF73E
:100F5000FFF94FB1D4E9012138469047206A401C7F
:100F60002062C01C206206E0206AFAE7D4E9012171
:100F700015F8010B9047761EF8D22046FFF7FEF9D0
:100F8000BDE8F0814E414E006E616E00494E460054
:100F9000696E66002DE9F047814616468AB03348EF
:100FA00078440DC88DE80D0030487844801C03ACAF
:100FB0000DC884E80D0041F69B300844372190FBB2
:100FC000F1F290FBF1F5A5F1800501FB12041B3C49
:100FD00002D56442012000E00020DFF890A08046A6
:100FE0000027FA44AAF1BE0A0DE0E00709D0324614
:100FF000684607EB47010AEB810100F00FFB8DE823
:10100000070064107F1C002CEFD1184F7F44AC3FC9
:1010100018E0E80714D007EB04100DF1180A90E867
:101020000E008AE80E00C068F04201D198190890BD
:10103000324606A903A800F0F1FA03AB83E80700E3
:101040006D10641C002DE4D132466946B8F1000FE2
:1010500003A802D000F0CEFA01E000F0DFFAC9E9FF
:101060000001C9F808200AB0BDE8F087E81C0000BC
:101070000446AFF300802046FFF707F900487047A9
:10108000B00000204FF0013C50F8042B51F8043B15
:101090009A4221D1A2EB0C03934313EACC1317D14C
:1010A00050F8042B51F8043B9A4215D1A2EB0C03E3
:1010B000934313EACC130BD150F8042B51F8043BA3
:1010C0009A4209D1A2EB0C03934313EACC13DBD071
:1010D0004FF00000704700BFD01A01BAB1FA81F199
:1010E00001F0180122FA01F0CB40C1F12001DBB27E
:1010F000C0B2C01A2CFA01F3D11A914311EAC311FC
:10110000E6D1704701491820ABBEFEE72600020079
:1011100070475FEA400C08BF91F0000F4FEA8C2344
:101120004FEAC12243EA51514FEA1C5018BF00F563
:10113000F0404FEA300018BF41F000415FEA6C5CBC
:1011400000F02980BCF1FF3F08BF40F080407047AD
:10115000130C06BF12044FF0100C4FF0000C130ECE
:1011600004BF12020CF1080C130F04BF12010CF1A2
:10117000040C930F04BF92000CF1020CD30F04BFB8
:1011800052000CF1010C11464FF00002A0F11F00BB
:10119000A0EB0C00704711F0004F08BF704731F012
:1011A00000413FF4D5AF0B0C06BF09044FF0100C03
:1011B0004FF0000C0B0E04BF09020CF1080C0B0FD2
:1011C00004BF09010CF1040C8B0F04BF89000CF162
:1011D000020CCB0F04BF49000CF1010CCCF1200331
:1011E000A0EB0C0022FA03F302FA0CF241EA03012D
:1011F00000F10100704720F07F4C80EA030023F0EB
:101200007F47ACEB070303F57C5300F0004003F18C
:10121000FF032DE980494FEA154B09B44FEA144307
:1012200025EA0B4E24EA03480FF2042606EB1327A7
:1012300049083E785FEA320203FB0667C7F50007FC
:1012400007FB06F64FEA54374FEAD64606F1020688
:1012500007FB066CCCF1005C4FEA1C472CEA074CFC
:1012600007FB06F40CFB06F504EB15464FEA961651
:1012700034BF00204FF000404FEAD13706FB07FC97
:101280004FEA1C4C0CFB0BF7D21B03FB0CF761EB7A
:1012900007010CFB0EF7B0EB074072EB17420CFB9B
:1012A00008F734BFA2EB0742B2EB074261EB1741EC
:1012B0004FEA0C444FEA910706FB07FC4FEA1C4C2F
:1012C0000CFB0BF7B0EBC74072EB573203FB0CF78C
:1012D00034BFA2EBC742B2EBC74261EB57310CFB04
:1012E0000EF7B0EBC70072EB57720CFB08F734BF78
:1012F000A2EBC702B2EBC70261EB5771039F4FEA43
:10130000816141EA921104EBCC044FEAD1374FEAF4
:10131000826206FB07FC42EA90124FEA80604FEAC5
:101320001C4C0CFB0BF7D21B03FB0CF761EB07010A
:101330000CFB0EF7B0EB074072EB17420CFB08F703
:1013400034BFA2EB0742B2EB074261EB17414FEA11
:101350008C554FEA910704EB9C2406FB07FC4FEAEF
:101360001C4C0CFB0BF7B0EBC74072EB573203FB86
:101370000CF734BFA2EBC742B2EBC74261EB573167
:101380000CFB0EF7B0EBC70072EB57720CFB08F7C3
:1013900034BFA2EBC702B2EBC70261EB577115EB8A
:1013A0004C254FEA816141EA92114FEA82624FEA8D
:1013B000D13742EA901206FB07FC44F100044FEAE1
:1013C00080604FEA1C4C0CFB0BF7D21B03FB0CF7A5
:1013D00061EB07010CFB0EF7B0EB074072EB174215
:1013E0000CFB08F734BFA2EB0742B2EB074261EBFC
:1013F000174115EB1C154FEA813141EA92414FEA42
:10140000823242EA90424FEA80304FEA0C7644F151
:10141000000448EA03434EEA0B484FF0000EB2EBDB
:10142000080C71EB030724BF624639464EEB0E0EE3
:101430004FF0000B0018524149414BEB0B0BB2EB44
:10144000080C71EB03077BF1000B24BF62463946A1
:101450004EEB0E0E4FF0000B0018524149414BEB82
:101460000B0BB2EB080C71EB03077BF1000B24BFF5
:10147000624639464EEB0E0E51EA020718BF46F09F
:10148000010616EB0E7655F1000254F1000103D56A
:10149000BDE88901BDE80088BDE88901BDE80048D4
:1014A000B619524141EB0101A3F10103704780805D
:1014B0007F7E7D7C7B7A79787776767574737271AE
:1014C00071706F6E6E6D6C6C6B6A6A696868676666
:1014D00066656464636362616160605F5F5E5E5DF8
:1014E0005D5C5C5B5B5A5A5959585857575656556C
:1014F00055555454535352525251515050504F4FCE
:101500004F4E4E4D4D4D4C4C4C4B4B4B4A4A4A491D
:101510004949484848474747474646464545454460
:101520004444444343434342424242414141002BED
:1015300026D4770021D01CB54FEA370703B44FF00B
:1015400010004FF010014FF000000FBCBDE810403C
:101550000BF1010BBBF1010F08BF5FEA170722BFB8
:1015600012F1010211F101014FF0004143F10003BA
:1015700000F0004043EA00007047F9D35708DAE76B
:1015800046EA064613F1400F4FEA16461FDD13F1F7
:10159000200FDFBF16430A46002120335B42C8D02C
:1015A000C3F1200746EA064602FA07F74FEA164655
:1015B00046EA0706C3F1200722FA03F201FA07F709
:1015C00021FA03F14FF0000342EA0702B1E746EACD
:1015D000020646EA06464FEA164646EA0106BCBF40
:1015E00046EA0646360C4FF000034FF000024FF07B
:1015F00000019EE72DE9C048934630B491E83800D9
:1016000007C831EA400C48BF34EA430C03D5FFF762
:10161000F2FDFFF78CFFF0BCBDE800882DE9C04863
:10162000934630B491E8380007C810F0804F08BFE7
:1016300013F0804F03D100F005F8FFF778FFF0BCFE
:10164000BDE8008820F07F4780EA030023F07F4C4C
:1016500007EB0C03A3F57C5300F00040A3F1FE035D
:1016600092F0000F00F0B38095F0000F00F077804B
:101670002DE901494FEA11404FEA144621EA00489A
:1016800000FB06FC24EA064708FB06F607FB08F801
:1016900000FB07F718EB06484CEB164C4FEA124BD1
:1016A00018EB07484FEA15464CEB174022EA0B4E61
:1016B0000BFB06FC25EA06470EFB06F607FB0EFEB3
:1016C0000BFB07F71EEB064E4CEB164C4FF00006DB
:1016D0001EEB074E4CEB174B18EB0B0840F10000CC
:1016E00018EB0E0B58EB000840F100008F1A4FF07A
:1016F00000013CBFC943661B14BFB5EB040C0021BD
:101700003CBFC943F61B4FEA17444EEA8E0E27EA48
:1017100004454FEA1C4704FB07622CEA074C05FB13
:1017200007F70CFB05F604FB0CFC16EB074642EB37
:10173000174216EB0C4642EB1C421BEB060658EB1D
:101740000202414146EA9E0601D5BDE80189B6196B
:10175000524141EB0101A3F10103BDE801894FEAC8
:1017600014454FEA114724EA054621EA074C05FBD8
:1017700007F406FB07F70CFB06F105FB0CFC11EB6D
:10178000074144EB17444FEA124711EB0C4144EB7D
:101790001C4422EA074C05FB07F206FB07F70CFB8B
:1017A00006F605FB0CFC16EB074642EB174216EB60
:1017B0000C4642EB1C456A1854F1000148BF7047C3
:1017C000B619524141EB0101A3F10103704795F0B5
:1017D000000F37D04FEA11424FEA144721EA024680
:1017E00024EA074C02FB07F106FB07F70CFB06F4A3
:1017F00002FB0CFC14EB074441EB17414FEA154781
:1018000014EB0C4441EB1C4125EA074C02FB07F5A5
:1018100006FB07F70CFB06F602FB0CFC16EB074673
:1018200045EB174516EB0C4645EB1C42121951F1DE
:10183000000148BF7047B619524141EB0101A3F1C5
:10184000010370474FEA14454FEA114724EA054661
:1018500021EA074C05FB07F106FB07F70CFB06F234
:101860004FF0000605FB0CFC12EB074241EB174161
:1018700012EB0C4251EB1C4148BF7047921841EBF0
:101880000101A3F10103704710B500F007FD0C48FA
:10189000006820F0F0000A4908600846006840F03F
:1018A0003000086000F004FD022001F0F1F800F0C3
:1018B000A5FD022001F0ECF800F0F0FC10BD0000E6
:1018C000040C014000BFFEE710B54FF4001000F01B
:1018D000E7F8012804D103490870400500F01CF81E
:1018E00010BD00001600002010B54FF0007000F091
:1018F000D7F801280AD10020054908704FF0007080
:1019000000F00AF80021034800F014F810BD0000B0
:10191000140000208000024000F0805111B1034902
:10192000086001E00249486070470000040402407A
:101930000000024021B1026842F00102026004E0AE
:1019400002684FF6FE731A400260704701684FF656
:10195000FE72114001600021016041608160C16040
:101960004B49884208D14A490839496841F00F017A
:10197000474A083A51608AE045491431884208D103
:1019800043490839496841F0F001414A083A516039
:101990007DE03F492831884208D13D4908394968EE
:1019A00041F470613A4A083A516070E038493C317C
:1019B000884208D136490839496841F47041344AAF
:1019C000083A516063E032495031884208D13049C9
:1019D0000839496841F470212D4A083A516056E0AF
:1019E0002B496431884208D129490839496841F4B2
:1019F0007001274A083A516049E025497831884208
:101A000008D123490839496841F07061204A083AF1
:101A100051603CE01F49884206D1011F096841F02E
:101A20000F01021F116032E01A491431884208D1B7
:101A30001849091F096841F0F001164A121F116088
:101A400025E014492831884208D11249091F096844
:101A500041F470610F4A121F116018E00D493C31CA
:101A6000884208D10B49091F096841F47041094AAD
:101A7000121F11600BE007495031884207D1054918
:101A8000091F096841F47021024A121F1160704752
:101A900008000240080402400146486880B27047CE
:101AA00001460020002201F0805313B1054B1A6853
:101AB00001E0054B1A6802EA01030BB1012000E0C6
:101AC0000020704700040240000002401AB1036881
:101AD0000B43036002E003688B430360704710B55B
:101AE0000022026847F6F0739A430C6A8B6823431E
:101AF0000C6923434C6923438C692343CC692343FA
:101B00004C6A23438C6A23431A430260CB684360C8
:101B10000B6883604B68C36010BD704710B500F060
:101B2000BDFB0C48006820F0F0000A490860084638
:101B3000006840F03000086000F06AFC022000F00D
:101B4000A7FF00F05BFC022000F0A2FF00F0A6FB64
:101B500010BD0000040C01402DE9F04102460025B3
:101B60000026002000230024002791F803C00CF079
:101B70000F0591F803C00CF0100CBCF1000F03D05E
:101B800091F802C04CEA050591F800C0BCF1000FC5
:101B900031D0146800202BE04FF0010C0CFA00F358
:101BA000B1F800C00CEA03069E4220D183004FF03A
:101BB0000F0C0CFA03F7BC4305FA03FC4CEA0404CF
:101BC00091F803C0BCF1280F06D14FF0010C0CFABC
:101BD00000FCC2F814C00AE091F803C0BCF1480F41
:101BE00005D14FF0010C0CFA00FCC2F810C0401CEB
:101BF0000828D1D31460B1F800C0BCF1FF0F34DD68
:101C0000546800202EE000F1080C4FF0010808FA9B
:101C10000CF3B1F800C00CEA03069E4221D1830008
:101C20004FF00F0C0CFA03F7BC4305FA03FC4CEA27
:101C3000040491F803C0BCF1280F05D100F1080C91
:101C400008FA0CF8C2F8148091F803C0BCF1480FF0
:101C500007D100F1080C4FF0010808FA0CF8C2F89F
:101C60001080401C0828CED35460BDE8F0810000ED
:101C7000F0B50A46002300240021002500F00046AC
:101C8000B6F1004F02D11D4EF16901E01B4E7168A3
:101C9000C0F3034583B200F44016B6F5401F08D1E7
:101CA00021F07061154E766826F07066134F7E60E5
:101CB00012E000F48016B6F5801F06D1032606FA5E
:101CC00005F4A14341F0706106E0460D360103FAC8
:101CD00006F6B14341F0706122B1460D360103FAB8
:101CE00006F6314300F00046B6F1004F02D1034E34
:101CF000F16101E0014E7160F0BD000000000140A3
:101D00000246002093680B400BB1012000E0002048
:101D10007047416170470161704700BFFEE710B531
:101D200000F0C0F800F062F800F004F800F08AF863
:101D300010BD000000B58BB00121084600F03EF94F
:101D400026480090264801900020029032200390FF
:101D500000200490802005900020069007900890B5
:101D60004FF40050099000200A9069461D48FFF783
:101D7000B6FE01211B48FFF7DDFD012202211948B3
:101D8000FFF7A4FE17481430FFF7E0FD134800905A
:101D900015480190102002906420039000200490C8
:101DA0008020059000200690079008904FF4005086
:101DB000099000200A9069460A481430FFF78FFE08
:101DC0000122022107481430FFF780FE0121054857
:101DD0001430FFF7AFFD0BB000BD0000044400401D
:101DE0007C0000206C0002401800002008B526206E
:101DF0008DF8000003208DF801008DF8020001200D
:101E00008DF80300684600F09FF811208DF800005F
:101E100003208DF801008DF8020001208DF80300E9
:101E2000684600F091F810208DF8000003208DF82E
:101E300001008DF8020001208DF80300684600F0D3
:101E400083F808BD1FB5684600F00EFD4FF4E13081
:101E500000900020ADF80400ADF80600ADF80800D1
:101E60000C20ADF80A000020ADF80C0069460C48C3
:101E700000F08EFC012240F22441094800F063FC8E
:101E800001224021064800F02BFC01228021044859
:101E900000F026FC0121024800F016FC1FBD0000E6
:101EA0000044004008B50121202000F0A7F80121DE
:101EB000084600F0A3F80121480400F08FF8012142
:101EC0000820FFF7D5FE2020ADF8000018208DF87F
:101ED000030003208DF8020069460748FFF73CFE27
:101EE0004020ADF8000004208DF803006946024848
:101EF000FFF732FE08BD00000014014010B500F0ED
:101F000001F810BD08B50121082000F077F84FF462
:101F10004070ADF8000010208DF8030003208DF80C
:101F2000020069460348FFF717FE00F071FA00F05F
:101F300065FA08BD000C014010B5FFF7F0FE10BDBA
:101F400000BFFEE77047000070B5002100230F229C
:101F5000C47804B3154C246804F4E064C4F5E06468
:101F6000210AC1F10403CA40447804FA03F18478D9
:101F70001440214309010E4C0678A155047804F061
:101F80001F050124AC4005786D11AD0005F1E02579
:101F9000C5F8004109E0047804F01F050124AC40B5
:101FA000044D0678761145F8264070BD0CED00E032
:101FB00000E400E080E100E07047000029B1064A3B
:101FC00052690243044B5A6104E0034A5269824356
:101FD000014B5A61704700000010024029B1064AC7
:101FE000D2690243044BDA6104E0034AD2698243B6
:101FF000014BDA61704700000010024029B1064A27
:1020000092690243044B9A6104E0034A9269824355
:10201000014B9A6170470000001002402DE9F04129
:1020200000210022002500230026002400278C46E2
:10203000DFF86081D8F8048008F00C0121B1042990
:1020400007D0082959D109E0DFF84C81C0F8008099
:1020500058E0DFF84881C0F8008053E0DFF83481B1
:10206000D8F8048008F47012DFF82881D8F80480CA
:1020700008F48035920C0D2A01D0921C00E0062253
:1020800035B9DFF81C8102FB08F8C0F8008033E0A6
:10209000DFF80081D8F82C8008F48036DFF8F4806F
:1020A000D8F82C8008F00F0808F1010446B9DFF8D1
:1020B000EC80B8FBF4F808FB02F8C0F800801BE0E5
:1020C000DFF8D080D8F82C80C8F3031808F1010796
:1020D000DFF8C080D8F82C80C8F3032808F1020C80
:1020E000DFF8B880B8FBF7F808FB0CF8B8FBF4F899
:1020F00008FB02F8C0F8008004E0DFF89C80C0F81C
:10210000008000BF00BFDFF88C80D8F8048008F0A2
:10211000F0010909DFF88C8018F80130D0F8008050
:1021200028FA03F8C0F80480DFF86880D8F8048043
:1021300008F4E061090ADFF86C8018F80130D0F883
:10214000048028FA03F8C0F80880DFF84880D8F83F
:10215000048008F46051C90ADFF8488018F801309B
:10216000D0F8048028FA03F8C0F80C80DFF8248047
:10217000D8F8048008F44041890BDFF82C8018F867
:102180000130D0F80C80B8FBF3F8C0F81080BDE83F
:10219000F08100000010024000127A0040787D01BA
:1021A00000093D00000000201000002070B504462A
:1021B000002600F0C7F92546E11704EB116109126A
:1021C000A02202EB4101C8B200F0E8F800F05AFB8F
:1021D000E11704EB11610912A4EB0121C8B200F070
:1021E000DDF800F04FFB00F0ADF9A12000F0D6F8CB
:1021F00000F048FB002000F017F8064600F0C0F998
:10220000304670BD70B506460C46154608E03046AF
:10221000721C96B2FFF7CAFF04F8010B681E85B264
:10222000002DF4D170BD000070B50546002415489E
:10223000006820F0F000134908600846006840F08C
:1022400080000860002612E000F028F8022000F06C
:102250001FFC00F0D3F86006040E00F015F820B162
:10226000601CC4B2012000F013FC701CC6B2082E22
:10227000EADB15B9FFF752FC01E0FFF705FB20464A
:1022800070BD0000040C014010B54FF4007102480D
:10229000FFF736FD10BD0000000C014010B54FF4F3
:1022A00080710248FFF735FD10BD0000000C0140B1
:1022B00010B54FF400710248FFF72BFD10BD000070
:1022C000000C0140704700002DE9F04180460D46AA
:1022D00000272E480078012836D100212C48FFF72E
:1022E00029FB2B48FFF7D8FBC6B22A480078801B91
:1022F000C7B2002405E0E0192749085C0855601CB6
:10230000C4B2B442F7DBA819642802DDC6F1640048
:10231000C5B2002406E018F80400A1191E4A505462
:10232000601CC4B2AC42F6DB2F46A81919490870EC
:10233000A8191749091D08600120144908700121D6
:102340001348FFF7F7FA1DE000211148FFF7F2FAF2
:10235000642D00DD6425002405E018F804000E4912
:102360000855601CC4B2AC42F7DB2F460948057023
:102370000748001D05600120044908700121044838
:10238000FFF7D8FA3846BDE8F081000014000020BD
:1023900080000240150000201800002070B504469F
:1023A0001548006820F0F0001349086008460068EE
:1023B00040F030000860FFF771FF002519E00120B0
:1023C000B0EBD41F02D100F023F801E0FFF770FF5B
:1023D0006006040E022000F05BFB00F00FF8022004
:1023E00000F056FBFFF75AFF022000F051FB681C7B
:1023F000C5B2082DE3DB70BD040C014010B54FF4ED
:1024000080710248FFF787FC10BD0000000C0140FE
:1024100010B54FF400710248FFF77DFC10BD0000BD
:10242000000C014010B500F001F810BD0CB5002003
:10243000019000903F48006840F480303D490860BA
:1024400000BF3C48006800F4003000900198401C38
:102450000190009818B90198B0F5A06FF1D13548F6
:10246000006800F4003010B10120009001E000206D
:102470000090009801285CD12F48006840F01000BF
:102480002D4908600846006820F0030008600846EF
:10249000006840F00200086026484068254948600E
:1024A0000846406848600846406840F480604860DC
:1024B0000846C06A214908401E49C8620846C06AE9
:1024C0001F4908431B49C8620846006840F0806005
:1024D000086000BF1748006800F000600028F9D0CD
:1024E0001448406820F47C1012494860084640684F
:1024F00040F4E81048600846006840F080700860CA
:1025000000BF0C48006800F000700028F9D00948AE
:10251000406820F00300074948600846406840F0E2
:102520000200486000BF0348406800F00C00082823
:10253000F9D10CBD001002400020024000F0FEFF67
:102540004406010010B50D48006820F0F0000B496A
:1025500008600846006840F030000860FFF758FF48
:10256000FFF74CFF042000F093FAFFF7A1FE0420D0
:1025700000F08EFAFFF792FE10BD0000040C01403F
:1025800010B50D48006820F0F0000B4908600846BF
:10259000006840F030000860FFF780FEFFF788FE1B
:1025A000042000F075FAFFF729FFFFF731FF042040
:1025B00000F06EFA10BD0000040C0140042808D1A0
:1025C0004FF0E021096941F004014FF0E022116170
:1025D00007E04FF0E021096921F004014FF0E0220B
:1025E000116170477047000010B51648006840F050
:1025F0000100144908600846406813490840114921
:10260000486008460068114908400E4908600846BD
:10261000006820F4802008600846406820F4FE002E
:1026200048600846006820F0A05008604FF47F0022
:1026300088600020C862FFF7F5FE4FF00060044993
:10264000086010BD001002400000FFF0FFFFF6FE22
:1026500008ED00E010B50121044800F00CF818B1B5
:102660000121024800F004F810BD00000004004001
:10267000CA430282704730B502460020002300247E
:10268000158A05EA0103958905EA010413B10CB125
:10269000012000E0002030BD10B5002440F22441AC
:1026A000074800F026F848B105480088C4B204483D
:1026B000001D0088C4B201200249087010BD00004E
:1026C000004400401600002021B1828942F40052EB
:1026D000828104E082894DF6FF731A40828170473F
:1026E0001AB1838A0B43838202E0838A8B438382FD
:1026F000704770B50246002400230025002040F6F4
:102700006A16B14200D100BFC1F3421501F01F03A8
:10271000012606FA03F3012D02D19689334006E023
:10272000022D02D1168A334001E0968A33400C1202
:10273000012606FA04F41688344013B10CB10120C6
:1027400000E0002070BDF0B50346002400260025FF
:10275000002040F66A17B94200D100BF1846C1F305
:10276000421401F01F06012707FA06F5012C01D1DA
:102770000C3004E0022C01D1103000E014301AB10A
:1027800007682F43076002E00768AF430760F0BDAA
:102790002DE9F04786B005460E460024A24600BF4C
:1027A000A1460027B08900B100BF2F462C8A4CF605
:1027B000FF700440F08804432C82AC894EF6F3107D
:1027C0000440B08831890843718908430443AC81CF
:1027D000AC8A4FF6FF400440B0890443AC8201A8A4
:1027E000FFF71CFC1F48874202D1DDF810A001E072
:1027F000DDF80CA0A88900F4004040B10AEBCA0043
:1028000000EB0A1031684900B0FBF1F807E00AEB71
:10281000CA0000EB0A1031688900B0FBF1F86420AF
:10282000B8FBF0F004012009642101FB1089A8899C
:1028300000F4004040B1322000EBC900B0FBF1F0E1
:1028400000F00700044308E0322000EB0910642187
:10285000B0FBF1F000F00F0004432C8106B0BDE89E
:10286000F0870000003801404FF41651016000214C
:102870008180C18001810C214181002181817047CB
:1028800000BFFEE710B500241248006820F0F000F9
:10289000104908600846006840F080000860FFF7B3
:1028A000B7FD012000F0F4F8FFF7A8FD012000F0CB
:1028B000EFF807E0601CC4B2FA2C03DDFFF760FEFE
:1028C000012010BDFFF7E0FC0028F3D1FFF7E6FC84
:1028D0000020F6E7040C014070B504460E46FFF7F1
:1028E00031FE2546E11704EB11610912A02202EB2B
:1028F0004101C8B2FFF752FDFFF7C4FFE11704EB37
:1029000011610912A4EB0121C8B2FFF747FDFFF7DF
:10291000B9FF3046FFF742FDFFF7B4FFFFF730FE87
:10292000052000F035F870BD70B505460C4616461A
:1029300006E021782846FFF7CFFF681C85B2641CAB
:102940003000A6F101018EB2F3D170BD490050EA0A
:10295000C12018BF04204A0D18BF40F0010040F20A
:10296000FF72B2EB515F08BF40F00200012808BFC0
:102970000520704730380A2801D201207047002016
:10298000704710B56FF00400FFF718FE10BD00008F
:1029900010B50146B1F5E16F24D201EBC1034FF44C
:1029A0007A7463434FF0E02463610023A3612346FC
:1029B0001B6943F00103236100BF4FF0E023186956
:1029C00000F001031BB100F48033002BF5D04FF071
:1029D000E0231B6923F001034FF0E024236100236F
:1029E000A36152E0002220E0284B4FF0E024636115
:1029F0000023A36123461B6943F00103236100BF49
:102A00004FF0E023186900F001031BB100F480339C
:102A1000002BF5D04FF0E0231B6923F001034FF0AA
:102A2000E02423610023A361521C4FF4E163B1FB56
:102A3000F3F39342D8D84FF4E163B1FBF3F403FB13
:102A4000141303EBC3034FF47A7463434FF0E02491
:102A500063610023A36123461B6943F001032361E3
:102A600000BF4FF0E023186900F001031BB100F430
:102A70008033002BF5D04FF0E0231B6923F00103D6
:102A80004FF0E02423610023A36110BD4031F70023
:102A9000014601EBC1024FF0E0235A6100229A6126
:102AA0001A46126942F001021A6100BF4FF0E0229B
:102AB000106900F001021AB100F48032002AF5D04A
:102AC0004FF0E022126922F001024FF0E0231A6178
:102AD00000229A61704700001FB5FFF752FFFFF711
:102AE0002BFAFFF70BFA1CE010220E490020FFF72B
:102AF0001BFF0A20FFF74CFF102269460020FFF75A
:102B000081FB0A20FFF744FF694607A000F00EF89A
:102B1000002000900190029003904FF4FA70FFF7AC
:102B200037FFE1E7BC2B0008257300000FB410B598
:102B3000B4B037A80190C82102A8019B369AFDF7CE
:102B4000CBFB0020019002A8FDF7E0FBC4B22146B8
:102B500002A8FFF7B9FB34B010BC5DF814FB00000D
:102B600010B500290AD00878002807D00548784415
:102B7000FEF788FA002801D0002010BD02487844F2
:102B800010BD0000560100004E01000010B50029E4
:102B90000AD00878002807D005487844FEF772FA72
:102BA000002801D0002010BD0248784410BD00006C
:102BB000460100003E010000FDF7F9BF3132333419
:102BC0003536205445535420210D0A0000000000E2
:102BD0000000000030313233343536373839414265
:102BE000434445464030580030313233343536376F
:102BF000383961626364656640307800040000081B
:102C000000000000000000020001000010000000B1
:102C100002400000000000A000000000054000008D
:102C2000000000C8000000000C4000000000409CB4
:102C300000000000194000000020BCBE00000000A1
:102C400034400000BFC91B8E00000004B5400000E6
:102C5000504BCFD06607E2CF010000006C4100006E
:102C60003E8251AADFEEA73401000000D9420000E5
:102C7000DCB5A0E23A301F97FFFFFFFFB44500002C
:102C8000FD25A0C8E9A3C14FFFFFFFFFFF3F0000E4
:102C90000000008000000000FF3F000000000080F6
:102CA00000000000F02D00080000002018000000C7
:102CB0008C010008082E000818000020F80600000B
:102CC000A80100081C00000043000000F8FFFFFFFF
:102CD0000C0000000E0000000F0000002E0000009D
:102CE0001001000043000000F8FFFFFF00404040DB
:102CF00040404040404041414141414040404040CF
:102D0000404040404040404040404040400502027A
:102D10000202020202020202020202020220202039
:102D20002020202020202002020202020202909095
:102D30009090909010101010101010101010101093
:102D400010101010101010100202020202028888E7
:102D500088888888080808080808080808080808F3
:102D600008080808080808080202020240000000DB
:102D70000000000000000000000000000000000053
:102D80000000000000000000000000000000000043
:102D90000000000000000000000000000000000033
:102DA0000000000000000000000000000000000023
:102DB0000000000000000000000000000000000013
:102DC0000000000000000000000000000000000003
:102DD00000000000000000000000000000000000F3
:102DE00000000000000000000000000000000000E3
:102DF00000000000010203040102030406070809A1
:082E00000204060800000000B6
:04000005080001519D
:00000001FF
